:020000040800F2
:10300000984D0020354F0008314F0008314F00081F
:10301000314F0008314F0008314F00080000000018
:10302000000000000000000000000000314F000818
:10303000314F000800000000314F00083D3A000801
:10304000314F0008314F0008314F0008314F000860
:10305000314F0008314F0008314F0008314F000850
:10306000314F0008E9440008314F0008314F000893
:10307000314F0008314F0008314F0008314F000830
:10308000314F0008314F0008314F0008314F000820
:1030900011610008314F0008314F0008314F00081E
:1030A000314F0008314F0008314F0008314F000800
:1030B000854E0008894E00088D4E0008314F0008EB
:1030C000314F0008314F0008314F0008314F0008E0
:1030D000314F000819490008314F0008314F0008EE
:1030E000314F0008314F0008156100080000000052
:1030F00000000000000000000000000000000000D0
:1031000000000000000000005FF808F108B538B1C9
:10311000064B1B681B689847054B18680A3008BDAA
:103120000122034B1B681A8208BD00BF1C0D002042
:10313000200D002008B538B1064B1B689B689847E6
:10314000054B18680C3008BD0122034B1B681A821E
:1031500008BD00BF1C0D0020200D002008B5002870
:1031600033D000211E4B1F481A680180137813F0DA
:103170007F0316D0012B27D0022B24D1527902F0E5
:103180000F039B0003F1804303F5B84312061B684D
:1031900020D403F44053B3F5805F0ED101230370B4
:1031A0000BE0527A93064CBF0223037851064CBFC2
:1031B00043F0010323F0010303700B4B1B681B69F1
:1031C0009847084808BD084608BD0222044B1B6802
:1031D0001A8208BD03F03003102BEED1DEE700BFEA
:1031E000200D0020780C00201C0D00202DE9F0415E
:1031F000244F3D682C8A2CB92E7A042E2BD0AB8A12
:10320000042604E0AB8A9C428CBF022604269C4222
:1032100028BF1C46AB69204698478046002001F035
:10322000D3FC22460146404603F09AFB214600208B
:1032300001F0E6FC30204FF440522B8A698A1B1BB8
:103240002B820C44104B11496C8208803D681A8017
:103250002E72BDE8F0810E4B1A78012A06D010229A
:1032600007260A4B1A802E72BDE8F08130270949E3
:10327000094A0968054889B20A44520014601C7062
:103280000780E5E7200D00207A0C00207C0C002050
:10329000580B0020505C00400230002038B5304B05
:1032A0001B68187810F07F0003D0022806D0022097
:1032B00038BD5A7A22F020025A7238BD5A88002A44
:1032C000F6D11A79002AF3D15879264D41B220F06F
:1032D0008000840004F1804404F5B84422682D780D
:1032E0000029B4BF02F0300202F44052A842DED2FC
:1032F000002ADCD09B7A002BD9D0002923680ADB76
:1033000003F44053B3F5805F12D0174B1B685B6921
:103310009847002038BD03F03003102BF5D1C4B21C
:10332000204601F01FFC2046302101F09DFBECE718
:1033300090B90E4B93F82C1001F070FC236823F425
:10334000804323F070039BB283F4405343F4004363
:1033500043F080032360D8E701F0F2FBEEE700BF03
:10336000200D0020500100201C0D0020CC0000206A
:1033700038B5214B214D18682D78427954B222F08E
:103380008002930003F1804303F5B8431968002CD1
:10339000B4BF01F0300101F44051AA4201D3022030
:1033A00038BD4288002AFAD10029F8D0827A002A52
:1033B000F5D0002C1A6811DB22F4804222F0700252
:1033C00092B282F4805242F4004242F080021A60CB
:1033D0000B4B1B689B699847002038BD22F4E042E4
:1033E00022F0400292B282F0100242F4004242F017
:1033F00080021A60ECE700BF200D00205001002081
:103400001C0D0020054B1B685A8A10B10868104437
:10341000704789888A1A1A82704700BF200D0020E1
:10342000F0B5A74EA74B34681A68237A83B0092BEE
:1034300039D0A54B92B213445B001D886D0005F195
:10344000804505F5C0452B7823706B786370A8889C
:1034500001F016FC60802889346801F011FC01221B
:10346000A080AB893468E38022720BB360780628B1
:1034700000F0918000284BD16188002900F0A380E2
:10348000924D2B681B699847032800F012814FF674
:10349000FF7133681A8A8A4200F09280022847D16D
:1034A00008221A721CE00122E3882272002BDDD16F
:1034B0002378677813F07F0347D0012B00F0CF808B
:1034C000022B00F02981814D2B6838465B699847B3
:1034D000032800F05781346800284FD00823237256
:1034E0007B4B002093F82C1001F098FB3368187A7E
:1034F000082806D14FF4805410227649764B0C8070
:103500001A80A0F10900B0FA80F0400903B0F0BDC4
:1035100008286AD123785B06B2D1704B0020A361E2
:10352000608298474FF6FF7133681A8A8A4247D003
:10353000002AB5D093F90010002979DB03204FF45D
:103540004051644A18721180CAE7092F00F00281C5
:10355000052F00F0CF80032F00F0E780012FB2D1BC
:10356000E378012BAFD1A388002BACD1637A9B0603
:10357000A9D5FFF793FE0028A5D134680025302097
:10358000504A574B1268544992B213445B001D6075
:1035900006230880A3E723785D067FF471AFA37844
:1035A0004A4D012B00F0EB80022B00F08680032BAC
:1035B0007FF467AF2B685B6A002BAFD1062060E712
:1035C00009221A728CE7636823F47F43B3F5003F46
:1035D0007FF456AF207810F07F0040F0D680A388AB
:1035E000002B7FF44DAF3F4B98E70A287FF448AF9C
:1035F000237803F07F03012B7FF442AFA37A002BE3
:103600003FF43EAF618800297FF43AAF63682F4DE5
:1036100023F47F43B3F5803F7FF433AF2B686079A9
:103620009B699847002840F0ED8034682E4B75E781
:10363000D98801910198824234D8914240F2AB80FE
:103640002249096891F82C0081B2914240F2A88089
:103650000020264A10709982FFF7C8FD40E70B2F23
:103660007FF431AF194DE1782B6860799B699847F9
:1036700033689A7A002A3FF427AF00287FF424AFFA
:103680001A79002A7FF420AF9B78002B7FF41CAFBF
:10369000174B1B68DB68984734686279E378E272FD
:1036A00023736BE7094A01991268198292F82C106A
:1036B000D1E7092233681A7212E72B681B6A7BE78D
:1036C000200D0020505C004004300020F80C002049
:1036D000CC0000207A0C00207C0C00200D3100086A
:1036E000023000205D31000835310008580B002001
:1036F0001C0D002094F90330002BFFF6EFAEA378E9
:10370000002B7FF4EBAEA388002B7FF4E7AEA37A07
:10371000002B3FF433AFE1E6012F3FF42AAF032F34
:103720007FF4D1AEFFF724FE25E7E378012B7FF489
:10373000CAAEA388002B7FF4C6AE637A9A067FF5E3
:10374000C2AE324A43F0200312686372D3699847CD
:10375000346813E72E4AE37852789A42FFF4B3AE06
:10376000A278002A7FF4AFAEA288002A7FF4ABAE25
:10377000264AA37213685B6898473468FEE62B6894
:10378000DB6919E734680923A9E601282DD002284E
:1037900011D0002074E61F4A126892F82C105AE7E4
:1037A00092FBF0F400FB1422002A7FF454AF0120B6
:1037B000194A10704FE7607900F00F02930001067C
:1037C00003F18043124903F5B8431B6809784CBFE5
:1037D00003F0300303F440538A42DAD210F0700051
:1037E000D7D1002B7FF4FFAE4AE60A4D60792B68F3
:1037F0009B69984730B93468A37A002B7FF4F3AE05
:1038000060783EE6336858783BE600BF1C0D002028
:1038100050010020F80C0020580B0020F8B5294C6E
:1038200023681A7A022A26D0042A24D0062A18D01D
:103830000821254A1972002092F82C1001F0EEF9A7
:103840002368187A082806D14FF4805410221F49A3
:103850001F4B0C801A80A0F10900B0FA80F04009DB
:10386000F8BD5A78052A0BD01A4B1B689B689847FD
:1038700023680821DDE7FFF7B9FC2368197AD8E748
:103880001A7812F07F02EFD1134993F803E00D7814
:1038900075B140F60F7748F2800610490B6842EA8E
:1038A00006003B4001320343954241F8043BF5D109
:1038B0000B490C4A4EF080030B6013681B6A984753
:1038C000D2E700BF200D0020CC0000207A0C0020A1
:1038D0007C0C0020F80C002050010020005C00400F
:1038E0004C5C00401C0D0020F8B53C4D2C68237A40
:1038F000022B07D0042B05D0032B1CD0052B1AD08C
:10390000072B49D00823364A2372002092F82C1046
:1039100001F084F92B68187A082806D14FF48054F6
:1039200010223049304B0C801A80A0F10900B0FA07
:1039300080F04009F8BDA369228ABBB1002A32D0C9
:10394000A68A964228BF164630469847228A638A3E
:10395000921B3344074622826382002001F042F921
:1039600032460146384603F00FF8228A02B300219E
:103970004FF440521B4B08461A8001F041F93022A7
:10398000238AA18A1848994202802A6822D91BB347
:10399000052314461372B6E7144B1B68DB6898477F
:1039A0002C680823AFE7A38A33B903232372AAE75D
:1039B000A38A2C68002BF8D00B480623002730265A
:1039C0000B4A237211680B4A89B20A4452001760ED
:1039D000068098E71446E8E71446EEE7200D00203D
:1039E000CC0000207A0C00207C0C0020F80C002079
:1039F000505C004002300020F0B40C4B1D787DB1CB
:103A0000002240F60F7748F2800609490B6842EA27
:103A100006043B4001322343954241F8043BF5D173
:103A2000044B40F080001860F0BC7047500100204B
:103A3000005C00404C5C0040704700BF024A1368C5
:103A400001331360704700BF5C0B002070B586B077
:103A500001A802F0A5F9F026002507242020094B33
:103A600009491B68094AA1FB031309499B09013B4A
:103A7000536081F823609560146081F8230006B0DC
:103A800070BD00BF10000020D34D621010E000E0B8
:103A900000ED00E00B4B1A681044824206D2196810
:103AA0008A420AD9704719688842FBD919688A4244
:103AB000F9D819688A42F9D9F5E719688842EED829
:103AC000704700BF5C0B00201A4AF8B594681A4B87
:103AD000074620461D6803F097FC06461748A0FBE2
:103AE0000530800C03F090FC394603F0E5FC0146FC
:103AF000304603F0D7FB03F02FFE844204D2104B74
:103B0000A3FB053500EB9510A0420A4A06D2936844
:103B10009C420AD2F8BD93689842FBD293689C42BB
:103B2000F9D393689C42F9D2F5E793689842EED3B3
:103B3000F8BD00BF10E000E01000002083DE1B4352
:103B4000D34D6210274A038890429BB212D002F5EF
:103B5000006290420ED0B0F1804F0BD0A2F59832A7
:103B6000904207D002F58062904203D002F5806255
:103B7000904203D14A8823F0700313431A4A9042BB
:103B800027D002F58062904223D070B423F44073B2
:103B9000CE888D880C889BB202F58C3233439042DC
:103BA0000380858504850ED0104B98420BD003F519
:103BB0004063984207D003F58063984203D003F531
:103BC0008063984201D10B7A0386012370BC838203
:103BD000704703808B8883850B880385012383824C
:103BE000704700BF002C014000100040003401402D
:103BF0000B88F0B4002B4DD0042B00F0CA80082BAA
:103C000000F08A8040F6FF43028C0D8922F4805236
:103C10001204120C8E884C880284828B2D0345EA94
:103C20000625834E1340028C2B43B0429BB292B2C6
:103C300028D0804DA84225D0B0F1804F22D0A5F5E4
:103C40009835A8421ED005F58065A8421AD005F522
:103C50008065A84216D047F6FF552A40224342F419
:103C6000805283830284828BC98822F440621204CA
:103C7000120C8283838B9BB243EA01239BB2838322
:103C8000F0BC704722F4005242F4805242EA0432FF
:103C900092B2E6E7028C8B8822F001021204120C29
:103CA0000F894D880284048B614EA4B224F0F30482
:103CB0002343028C43EA0713B0429BB292B225D051
:103CC0005C4CA04222D0B0F1804F1FD0A4F59834B4
:103CD000A0421BD004F58064A04217D004F5806494
:103CE000A04213D022F00A022A4342F001020383C9
:103CF0000284038BCA8823F00C031B041B0C038370
:103D0000038BF0BC9BB213430383704722F0020283
:103D10002A4342F00102EAE7028C8B8822F4807287
:103D20001204120C0E894C880284828B404D92B290
:103D300022F0F3021343028C43EA0613A8429BB21B
:103D400092B264D005F50065A84260D0B0F1804F12
:103D50005DD0A5F59835A84259D005F58065A842F3
:103D600055D005F58065A84251D022F42062224347
:103D700042F4807283830284838BCA8823F00C030D
:103D80001B041B0C8383838BF0BC9BB21343838384
:103D9000704740F6FF43028C8D8822F01002120417
:103DA000120C0E894C880284028B2D0245EA0635DE
:103DB0001F4E1340028C2B43B0429BB292B22ED0C6
:103DC0001C4DA8422BD0B0F1804F28D0A5F59835D6
:103DD000A84224D005F58065A84220D005F580656D
:103DE000A8421CD022F0A002224342F0100203831A
:103DF0000284028BC98822F440621204120C0283EE
:103E0000038B9BB243EA01239BB2038338E722F47E
:103E1000007242F4807242EA042292B2AAE722F0CF
:103E2000200242F0100242EA041292B2DFE700BF21
:103E3000002C014000340140038829B923F001031C
:103E40001B041B0C038070479BB243F001030380EB
:103E5000704700BF83899BB21AB923EA01018181AF
:103E60007047194381817047038C23F002031B04C0
:103E70001B0C194301847047038C23F020031B049F
:103E80001B0C43EA011189B201847047038C23F4AF
:103E900000731B041B0C43EA012189B201847047A3
:103EA000038C23F400531B041B0C43EA013189B239
:103EB00001847047808E80B2704700BF008F80B24F
:103EC000704700BF808F80B2704700BFB0F84000DD
:103ED00080B27047038A828911EA030092B203D04C
:103EE000114214BF01200020704700BFC94389B2AE
:103EF000018270472DE9F04F0446ABB002F0B0FAF2
:103F00003220FFF7C7FD2046002102F0AFFA01235F
:103F100020461A46102102F07FFB0621204602F0BF
:103F200089FB204602F08CFB002320461A461946E6
:103F3000984602F071FB204602F0CCFA204602F0CF
:103F4000E1FA0490204602F001FB8246204602F08E
:103F500021FB0127DFF8D0B3814601972046CDF839
:103F600000804346594640F2897202F087FC18B936
:103F700038462BB0BDE8F08FC0220BF28C71204682
:103F800002F08AFC18B902202BB0BDE8F08F0321A3
:103F9000204602F071FA1221204602F041FA042173
:103FA000204602F0FBF93946204602F0FDF9414671
:103FB000204602F005FA0321204602F00DFA032103
:103FC000204602F0C1FC4146204602F0C3FC4146B7
:103FD000204602F091FA0499204602F0A9FA5146CF
:103FE000204602F0C9FA4946204602F0E9FA414665
:103FF000204602F0F3FA4146204602F0F5FA414627
:104000002046CDF81080FF2602F0F4FA02233D4648
:10401000B8463A46B14690274FF0B20A049918467E
:104020000CE0AB1D9BB25B445246013582464846CC
:10403000B1464646B84693F84C78ADB22AAB0B442D
:10404000E9B2032903F8902CEBD99DF81A20931CB0
:104050009942E6DD0590002301209DF818E00491C7
:104060009DF81910029301907346009120460DF1BE
:104070001B0102F04DFB0023049A9E46C2F1010190
:1040800005980AE0AA1D92B25A445546824648460F
:10409000B1464646B84692F84C784B192AAA724463
:1040A0005FFA83FE02F890ACBEF1030F05F1010A3E
:1040B0001FFA8AFAE6D99DF81A20931C9E45E1DD85
:1040C0004FF0000E01259DF819109DF81830CDF81D
:1040D00008E005908DE8220020460DF11B0102F05A
:1040E00017FB204602F0B6F9204602F0D1F90AA9E2
:1040F000C2B2204602F0E0F90221204602F078F92F
:104100009C21204602F080F95021204602F076F9E9
:104110000021204602F07EF9204602F09BF9294654
:10412000204602F091F92946204602F069FA20461D
:1041300002F06CFA002105980B460AE00AF105022C
:10414000AA4692B25A444846B1464646B84692F804
:104150004C780133DBB22AAA11440AF10105032B82
:1041600001F8900CADB21946E8D99DF81A20901CC0
:104170008342E3DD4FF0000A01209DF819109DF8FD
:10418000183001900091CDF808A00DF11B012046D8
:1041900002F0BEFA51465346484608E02A1D4D46F5
:1041A00092B25A4430464646B84692F84C780133AB
:1041B000DBB22AAA114405F10109032B01F8900C86
:1041C0001FFA89F91946E9D99DF81A20901C8342F3
:1041D000E4DD002501209DF81910019000919DF863
:1041E00018300DF11B010295204602F091FA284685
:1041F0002946324608E009F10303B1469BB25B440D
:104200004246B84693F84C780131C9B22AAB1844FB
:1042100009F10106032900F8902CB6B20846EAD944
:104220009DF81A20931C9942E5DD012000259DF898
:104230001910019000919DF8183002950DF11B01A5
:10424000204602F065FA204602F022F90228FADD43
:10425000C2B20AA9204602F02FF9204602F0E6F881
:1042600000210B4606E0B21C2E4692B25A44B846D4
:1042700092F84C780133DBB22AAA1144751C032B47
:1042800001F8908CADB21946EDD99DF81A20901C1A
:104290008342E8DD9DF819109DF818300091204602
:1042A0000DF11B0102F0DAF9204602F0F1F80228C4
:1042B000FADDC2B20AA9204602F0FEF8204602F05A
:1042C000B5F800210B4603E00BEB050292F84C78A1
:1042D0000133DBB22AAA11440135032B01F8907C8B
:1042E000ADB21946F0D99DF81A20901C8342EBDD3F
:1042F000002701259DF819009DF818300DF11B01CC
:104300008DE8A100204602F003FA3946204602F06B
:1043100077F92A232046A38002F09CF8204602F079
:1043200085F8384625E600BFB4D5000810B54FF033
:104330007E542046FFF7C8FB04480022102101F0FC
:10434000B1F92046BDE81040FFF7BEBB00080140B0
:1043500008B54FF07E50FFF7B7FBBDE808400122DB
:104360001021014801F09EB90008014010B5014636
:104370000D4801F067FF0C4C0221204601F068FF58
:104380000028F9D0084C0121204601F061FF0028E7
:10439000F9D08021044801F05BFF0128F9D00248E0
:1043A00001F052FFC0B210BD00300140F0B5012154
:1043B00089B041F2050001F03FFD02A801F068F963
:1043C0000324A022182302A943488DF80A40ADF81F
:1043D00008208DF80B3000F0A5FF48234022102460
:1043E00002A93D488DF80B30ADF8082000F09AFF87
:1043F00002A93948ADF808408DF80B4000F092FF53
:1044000021460122344801F04DF903A801F000FFD4
:104410004FF400700023282201244FF482770726EE
:10442000022503A9ADF816002C48ADF80C30ADF804
:104430001030ADF81A30ADF81820ADF81440ADF8D2
:104440000E70ADF81C60ADF8125001F0C1FE2146AF
:10445000224801F0E9FE224802F002F83220FFF77C
:1044600019FB1F4C204601F07FFF0028FAD01C4E9C
:1044700035462846FFF73EFD04460028F9D10121C4
:10448000174802F0BDF8082548220327B38801A980
:1044900011488DF8072033838DF80670ADF804506D
:1044A00000F040FF3946204601F038F903A801F03A
:1044B00019FD012303A88DF8123003958DF81150D2
:1044C0008DF8104001F0D0FC064B0DEB0500029377
:1044D00001F04CFE09B0F0BD000801400030014081
:1044E000600B0020090200012DE9F041082001F0D5
:1044F00001FD08B9BDE8F081394C00220821394896
:1045000001F0D0F8204601F091FF0546204601F069
:10451000BFFFEA0660D4B0F5806F5DD0AB0751D520
:10452000228B904206DA2546284601F0B1FF228B05
:104530009042F9DB2C49D2B2A1F11C0001F0BCFF82
:10454000257F607F94F8242094F8283094F8201078
:1045500000EB052094F8217094F8256094F8295018
:1045600000B206EB022605EB032507EB012702F05C
:104570004FFF4FF0625102F09FFF80463FB2384636
:10458000C4F85C8002F044FF4FF0625102F094FFE7
:10459000074636B23046276602F03AFF4FF06251C6
:1045A00002F08AFF06462DB22846666602F030FF0A
:1045B0004FF0625102F080FFC4F86C802767666795
:1045C000A066A06707480122082101F06BF8BDE84A
:1045D000F041082001F09CBC014801F03BFFF1E7ED
:1045E000600B0020000C01407C0B002010B5064C35
:1045F000204601F0B5FE00234FF07E522366E265AF
:104600006366A36610BD00BF600B002000232DE988
:10461000F047564E84B0DFF86C91DFF86C81544F50
:10462000ADF80E30D9F80030524C99B21B04524DFF
:10463000524A318040F18E80338803F00F03990095
:1046400001F1804101F5B84188F80030002B30D1EC
:104650004BF6BF7A23689BB22B802B8803F0300384
:1046600013802B8803F440532B80236803EA0A034A
:1046700083F4005383F0200343F4004343F08003AA
:1046800023603388D8063CD523689BB2ADF80E3042
:10469000BDF80E30190560D4BDF80E301B04C1D52D
:1046A00040F68F71236801920B402360FFF71CF9DD
:1046B0002FE00A6892B2ADF80E20BDF80E2010046B
:1046C00014D4BDF80E301A06ACD548F60F7098F821
:1046D0000020930003F1804303F5B8431968013AC1
:1046E000014057F82220196090479BE740F68F74ED
:1046F0000A6823482240013B50F823300A6098475B
:10470000DFE748F60F71236801920B402360FFF743
:1047100085F82368298803EA0A0A019A2B8811F48C
:10472000805F18BF8AF4805A9E04138848BF8AF4B9
:10473000005ADD06138848BF8AF0100A9C0648BF5D
:104740008AF0200A4AF4004A4AF0800A094A1FFA0D
:104750008AF3136004B0BDE8F08740F68F712368D8
:1047600001920B402360FEF75BFED2E76C0D002048
:104770008C010020005C00407A0C00207C0C0020A2
:1047800070010020445C0040FC0C002030B4002488
:104790004FF41F05394B3A49186882B040F00100C8
:1047A000186058681A4601405960196821F08471F0
:1047B00021F480311960196821F480211960596849
:1047C00021F4FE0159609D6000940194196841F440
:1047D0008031196003E0009BB3F5A06F09D0136826
:1047E00003F400330193009B01330093019B002BE2
:1047F000F1D0224B1B6813F4003318BF012301933F
:10480000019B012B05D01F4B1F4A9A6002B030BCA0
:1048100070471E49194B08681A4640F0100008609E
:10482000086820F003000860086840F00200086093
:104830005968596059685960596841F480615960F4
:10484000596821F47C115960596841F4E8115960A4
:10485000196841F08071196013689B01FCD5536899
:10486000064923F003035360536843F00203536087
:104870004B6803F00C03082BFAD1C4E70010024088
:104880000000FFF800ED00E00030000800200240CA
:1048900030B5012185B0082001F0CEFA01214FF496
:1048A000802001F0D5FA4FF4006404220323694606
:1048B0001648ADF800408DF803208DF802304FF413
:1048C000E13500F02FFD00230C22114C69462046F3
:1048D000ADF80430ADF80630ADF80830ADF80C3066
:1048E000ADF80A20009501F019FB2046012101F0E6
:1048F00073FB2046012240F2255101F07BFB054B62
:104900006846009301F032FC05B030BD000C014058
:10491000003801402503000110B540F225514448FC
:1049200001F092FB012800D010BD0446404801F080
:1049300081FB404A404B11681A6A8A1A052A04D939
:1049400083F824401870196210BD93F824200F2AB0
:1049500065D99878DA7802EB002292B2C2F383200C
:10496000062804D803EB4000C2F30902028218793A
:104970005A7902EB002292B2C2F38320062804D8AF
:1049800003EB4000C2F3090202829879DA7902EB64
:10499000002292B2C2F38320062804D803EB400021
:1049A000C2F309020282187A5A7A02EB002292B20A
:1049B000C2F38320062804D803EB4000C2F30902A7
:1049C0000282987ADA7A02EB002292B2C2F3832052
:1049D000062804D803EB4000C2F309020282187BC8
:1049E0005A7B02EB002292B2C2F38320062804D83D
:1049F00003EB4000C2F309020282987BDA7B02EBF0
:104A0000002292B2C2F38320062804D803EB4000B0
:104A1000C2F309020282002283F8242093E7541C87
:104A2000E4B2102C985483F824408CD191E700BF55
:104A3000003801405C0B0020E40B00204FF6F873B7
:104A4000014A034013607047505C0040800000F151
:104A5000804000F5B840036823F4EC4323F0700372
:104A6000194389B201607047800000F1804000F571
:104A7000B8400368CA0623F4E04323F040039BB226
:104A800048BF83F010038A0648BF83F0200343F435
:104A9000004343F080030360704700BF800000F1D3
:104AA000804000F5B8400368CA0423F4804323F033
:104AB00070039BB248BF83F480538A0448BF83F4D9
:104AC000005343F4004343F080030360704700BF8A
:104AD000800000F1804000F5B840036823F4E04313
:104AE00023F040039BB283F0300343F4004343F0D0
:104AF00080030360704700BF800000F1804000F534
:104B0000B840036823F4804323F070039BB283F41E
:104B1000405343F4004343F080030360704700BFF9
:104B200040F60F63800000F1804000F5B840026855
:104B3000134043F4004343F080030360704700BF19
:104B4000800000F1804000F5B84003685B0408D5A0
:104B500040F60F720368134043F4404343F0800370
:104B600003607047800000F1804000F5B8400368A2
:104B70005B0608D540F60F720368134043F4004308
:104B800043F0C00303607047064B49081B684900A7
:104B90009BB203EBC00000F1005000F54050400014
:104BA00001607047505C0040054A064B1268490896
:104BB00092B202EBC002134449005B0019607047D7
:104BC000505C004004300020054B1B689BB203EB97
:104BD000C00000F1005000F54050400000887047D0
:104BE000505C0040044A054B126892B202EBC000D0
:104BF00003445B0018887047505C0040043000207C
:104C0000044A054B126892B202EBC00003445B00F9
:104C100019607047505C0040023000200E4A0F4B74
:104C200012683E2992B202EBC00003444FEA4303EC
:104C30000AD94A09C80604BF02F1FF3292B29202B1
:104C400042F400421A6070474A08C90748BF01325F
:104C500092021A60704700BF505C0040063000208E
:104C6000054A064B126892B202EBC00003445B0097
:104C70001868C0F309007047505C004006300020FF
:104C8000C3B2000A40EA0320704700BF2DE9F04399
:104C9000012189B0072001F0DBF800254FF6FF72F3
:104CA0000127494B49491B68494EA1FB03139B0C43
:104CB000013B02A94FF08040ADF80830ADF80C2060
:104CC000ADF80A50ADF80E50FEF73CFF39464FF0F4
:104CD0008040FFF7B1F8DFF8008102A93046FEF707
:104CE00031FF30463946FFF7A7F802A9404608AC25
:104CF000FEF728FF40463946FFF79EF824F80C5D82
:104D000021464046ADF81650ADF81A50ADF81C508B
:104D1000ADF81870FEF76CFF40460221FFF7E6F889
:104D20003A4640460221FFF795F804234FF0080960
:104D300021463046ADF81430FEF75AFF2146304682
:104D4000ADF81490FEF754FF0C2321463046ADF821
:104D50001430FEF74DFF30461C21FFF7C7F83A46E6
:104D600030461C21FFF776F821464FF08040ADF821
:104D70001450FEF73DFF21464FF08040ADF81490EF
:104D8000FEF736FF0A214FF08040FFF7AFF83A46B2
:104D90000A214FF08040FFF75DF80E4B0DF120081F
:104DA00048F81C3D404601F0E1F91D2340468DF8CE
:104DB000043001F0DBF91E2340468DF8043001F089
:104DC000D5F909B0BDE8F0831000002083DE1B4355
:104DD000000400401C000001000800402DE9F84FCD
:104DE000254C0025A4F1300B06E00135062D04F119
:104DF00010040BF1080B2DD02668B4F806A030463D
:104E00005146B4F80480A768D4F80C90FFF762F814
:104E10000028EAD030465146FFF768F83046C847C8
:104E2000B8F1000F18D00021BBF806E0134BA0EB3F
:104E30000E00DBF8002023F81500BBF804005061D9
:104E4000A18030460135B847062D04F110040BF15E
:104E5000080BD1D1BDE8F88FBBF80610084B411AFA
:104E6000DBF8002023F81510BBF80410ABF806009F
:104E700011610221E4E700BF60000020180C00204F
:104E80000C0C0020FFF7AABFFFF7A8BFFFF7A6BFD3
:104E90002DE9F041012182B00C2000F0CDFF01216D
:104EA000084600F0C9FF01211E4800F001FC01A8DE
:104EB00000F0EEFB032610234FF481784FF4647763
:104EC000194D1A4C01A928468DF807308DF8066057
:104ED000ADF8048000F026FA4146284600F0E0FBD9
:104EE00001A92046ADF8047000F01CFA39462046AE
:104EF00000F0D6FB28220523284601A98DF80720BB
:104F0000ADF804308DF8066000F00CFA632301A9B7
:104F10002046ADF8043000F005FAFFF7B7FE02B006
:104F2000BDE8F08100081A0000080140000C0140B3
:104F3000FEE700BF08B50D480D4B984207D2C243AB
:104F40001A4422F0030204320A4903F08DFE0A4893
:104F50000A494FF000028842B8BF40F8042BFADB40
:104F6000FFF714FCBDE8084000F0D2BD00000020AF
:104F7000580B00203CE40008580B0020980D00203E
:104F800010B54FF480204FF4802400F0C1FF0821B9
:104F90000122044B1C601846BDE8104059719A71FB
:104FA00000F062BFC40C002008B5002000F0F2FE43
:104FB000BDE8084001214FF4000000F049BF00BFE8
:104FC000064B9B7A23B90122054B1A60FFF7DEBB23
:104FD0000522034B1A60FFF7D9BB00BF000D00206C
:104FE0002C0C002010B5094B82B002AC44F8043DF3
:104FF000204601F0BBF82A22042320468DF8042025
:105000008DF8053001F0B2F802B010BD14040001B3
:105010003A4A3B4B12681B68D2186ED010B4002479
:10502000384B100F19680928374B94BF3030373090
:105030009870C2F30360092894BF3030373018717C
:10504000C2F30350092894BF303037309871C2F34F
:105050000340092894BF303037301872C2F3033050
:10506000092894BF303037309872C2F303200928E2
:1050700094BF303037301873C2F30310092894BF3F
:1050800030303730DC709873002400205C71D873A6
:1050900000240020DC715874002400205C72D87455
:1050A0000024002002F00F02092A94BF3032373268
:1050B0001A740A0F092A94BF303237329A74C1F336
:1050C0000362092A94BF303237321A75C1F3035292
:1050D000092A94BF303237329A75C1F30342092A44
:1050E00094BF30323732DC72587500241A760020B3
:1050F00000225C73D8755A7610BC7047E8F7FF1F22
:10510000F0F7FF1FECF7FF1F140000203F2901D923
:105110000020704738B50025074B8CB22246C021CD
:105120001D6001F01DFC21460120FFF769FD0120F3
:10513000FFF7CEFC012038BD5801002070B50E46A7
:1051400014461D46FFF7F2F886F08000FFF70EF9CF
:105150000020FFF70BF90646FFF7FAF8012000FAE6
:1051600004F434402C7070BDF8B50E461C4617464A
:10517000069DFFF7DBF886F08000FFF7F7F80020C8
:10518000FFF7F4F80646FFF7E3F801203A1B00FAB0
:1051900004F40244013C94403440E4B214412C70C5
:1051A000F8BD00BF38B50D461446FFF7BFF885F0CF
:1051B0008000FFF7DBF80020FFF7D8F82070FFF73A
:1051C000C7F8012038BD00BF70B50C4615461E4615
:1051D000FFF7ACF884F08000FFF7C8F845B1002471
:1051E0000020FFF7C3F8631C3055DCB2AC42F7DB9C
:1051F000FFF7AEF868B270BDF8B50D461E4617460B
:10520000FFF794F885F08000FFF7B0F80020FFF773
:10521000ADF80446FFF79CF8012303FA07F27EB9C4
:1052200024EA0204E4B2FFF781F805F07F00FFF7FB
:105230009DF82046FFF79AF8FFF78AF80120F8BD9D
:105240001443E4B2EFE700BF2DE9F8430F461C46D4
:1052500091469DF82080FFF769F887F08000FFF7FE
:1052600085F80020FFF782F801260546FFF770F861
:10527000A9EB0402324406FA04F408FA02F0013CF5
:105280009440C0B2204025EA04040443E4B2FFF78E
:105290004DF807F07F00FFF769F82046FFF766F842
:1052A000FFF756F83046BDE8F88300BF38B50D4625
:1052B0001446FFF73BF805F07F00FFF757F820464C
:1052C000FFF754F8FFF744F8012038BD38B50D4614
:1052D0001446FFF72BF805F07F00FFF747F8200A88
:1052E000FFF744F8E0B2FFF741F8FFF731F801208B
:1052F00038BD00BF70B50C4615461E46FFF716F8C0
:1053000004F07F00FFF732F83DB10024305D013436
:10531000E4B2FFF72BF8AC42F8DBFFF719F80120F5
:1053200070BD00BF30B4CD78EB0648BF8B7805F078
:105330000F0448BF1C430B8813F0FF0F32D0482DD9
:10534000026800F08180282D00F0B680D90744BFA4
:1053500022F00F022243990744BF22F0F00242EAF2
:105360000412590744BF22F4706242EA042219076A
:1053700044BF22F4704242EA0432D90644BF22F408
:10538000702242EA0442990644BF22F4700242EAC3
:105390000452590644BF22F0706242EA04621906C0
:1053A00071D40260FF2B30D9282D42682FD0482DB0
:1053B0006CD0D90544BF22F00F0222439D0544BFA3
:1053C00022F0F00242EA0412590544BF22F470624E
:1053D00042EA04221D0544BF22F4704242EA04322C
:1053E000D90444BF22F4702242EA04429D0444BF1F
:1053F00022F4700242EA0452590444BF22F070625F
:1054000042EA04621D043BD4426030BC7047D905B7
:1054100000F1D6809D0500F1CB80590500F1C080D8
:105420001D0500F1B580D90400F1AA809D0400F1AA
:105430009F80590400F194801B04E5D54FF400438C
:1054400064F31F724361DFE7D90700F1E380990736
:1054500000F1D980590700F1CF80190700F1C5800C
:10546000D90600F1BB80990600F1B180590600F120
:10547000D780190695D5802164F31F72016190E7EA
:1054800064F31F72C0E764F31F728AE7D90548D43A
:105490009D053ED4590534D41D052AD4D9044FD4D2
:1054A0009D0445D4590453D41D04ADD54FF4004395
:1054B00064F31F720361A7E7D90700F1E28099073F
:1054C00000F1D880590700F1CE80190700F1C4809F
:1054D000D90600F1BA80990600F1B080590600F1B2
:1054E000A68019067FF55DAF802164F31F724161CC
:1054F00057E74FF4006122F4704242EA043201613E
:10550000CCE74FF4806122F4706242EA0422016128
:10551000C2E74FF4007122F0F00242EA0412016186
:10552000B8E74FF4807122F00F0222430161AFE728
:105530004FF4005122F4700242EA04520161B1E7D3
:105540004FF4805122F4702242EA04420161A7E73D
:105550004FF4804122F0706242EA04620161A3E7E5
:105560004FF4804122F0706242EA0462416163E7D5
:105570004FF4005122F4700242EA0452416158E7AC
:105580004FF4805122F4702242EA044241614DE717
:105590004FF4006122F4704242EA0432416142E772
:1055A0004FF4806122F4706242EA0422416137E7DD
:1055B0004FF4007122F0F00242EA041241612CE73C
:1055C0004FF4807122F00F022243416122E7202133
:1055D00022F4700242EA0452016147E7102122F4EA
:1055E000702242EA044201613DE7082122F4704240
:1055F00042EA0432016133E7042122F4706242EA94
:105600000422016129E7022122F0F00242EA041299
:1056100001611FE7012122F00F022243016116E719
:10562000402122F0706242EA0462016121E74021D8
:1056300022F0706242EA0462416152E7202122F4C2
:10564000700242EA0452416148E7102122F47022BC
:1056500042EA044241613EE7082122F4704242EAF4
:105660000432416134E7042122F4706242EA0422E8
:1056700041612AE7022122F0F00242EA041241616C
:1056800020E7012122F00F022243416117E700BF0A
:105690004FF6FF710222042301808270C3707047AD
:1056A000416170470AB9416170470161704700BFAD
:1056B0000028194B00F44012B4BFDB695B68B2F5F7
:1056C000401F30B484B21ED0C20213D50322C0F3EF
:1056D0000345AA4023EA020343F0706319B1420D67
:1056E0001201944023430C4A0028B4BFD361536095
:1056F00030BC7047420D120104FA02F223EA0203A1
:1057000043F07063EAE7044D23F070636A6822F0A7
:1057100070626A60E2E700BF0000014010B40F242D
:1057200001F0FC0303F1804303F5803301F0030132
:105730009A6889008C4022EA04029A609A6800FA0A
:1057400001F11143996010BC704700BF034B9B7A75
:1057500013B10522024B1A60704700BF000D0020F4
:105760002C0C00200422014B1A6070472C0C0020E6
:10577000034B1A78202A04BF00221A70704700BF1A
:10578000240C0020704700BF212804D020280346A5
:1057900011D0022070470F4B1A68137803F07F0373
:1057A000212BF6D10C4910B500249161548220467A
:1057B0008847204610BD074A1268117801F07F0122
:1057C000212903D0054A0220137070470348044979
:1057D0000370E8E7200D00206D590008240C00201C
:1057E00019580008074B1B681B7803F07F03212B17
:1057F00001D00220704700F0DF00022814BF022011
:1058000000207047200D002009B1022070470128B8
:105810008CBF02200020704708B10348704708225F
:10582000024B1B681A827047C4000020200D002024
:1058300010B50024FFF7ECFB044B1B689C7200F0D2
:10584000A1F800F025FC024B1C6010BD200D0020CB
:105850002C0C002010B50024324B334A1B68D2793F
:105860009C725A72DC722046FFF7E8F820464FF42B
:105870000071FFF7EBF820461021FFF7F5F82046FE
:105880004021FFF791F980212046FFF77DF920465E
:10589000FFF746F9254B204693F83410FFF7BEF981
:1058A0002046FFF729F921460120FFF7CFF8C02154
:1058B0000120FFF769F920210120FFF7D5F82146E3
:1058C0000120FFF7EBF84FF4C0610220FFF7BEF8AC
:1058D0004FF480710220FFF757F921460220FFF7AD
:1058E000DDF820210220FFF7BFF821460320FFF753
:1058F000ADF84FF488710320FFF756F940210320DB
:10590000FFF78CF94FF440510320FFF7C7F8214609
:105910000320FFF7A9F82046FEF76EF80122044B9A
:105920001A6010BD200D002090DE0008C400002089
:105930002C0C00200149FDF765BD00BFFC000020D4
:105940000149FDF75FBD00BF04010020054B1B6846
:10595000DB78042B04D8044901EBC301FDF752BDE9
:1059600000207047200D00200C01002008B10348E2
:1059700070470822024B1B681A827047C40000203F
:10598000200D0020002201204FF4E05130B4054BDF
:10599000054D064C18601A6010462A602180196077
:1059A00030BC7047405C0040445C0040240D002047
:1059B00070B5314C072818BF20702378052B49D8C3
:1059C000DFE803F0171E2F343D036378013BDBB2A1
:1059D0006370637803F0FF02002B3DD14FF6EF7345
:1059E0000625264926480E6833400B602570026064
:1059F00070BD234B1B68002B2FD00523237070BD77
:105A00004FF6FB731D4D2A6813402B60FFF7D8FA41
:105A10004FF4274004210122194B286021701A609D
:105A200070BD022203236270237070BD6378013B56
:105A3000DBB2637063787BB90423237070BD0520EB
:105A40000A210E4A13689BB243F0100313602070C2
:105A5000617070BD0623237070BD4FF6FB73074D58
:105A60002A6813402B60FFF7ABFA4FF42742062356
:105A70002A60237070BD00BFD00C0020405C004045
:105A8000280C002070B40226064A074D074C084B2C
:105A900008490948167223602A601B68086070BCB8
:105AA000184700BF000D0020200D0020F80C00203A
:105AB000CC0000201C0D00202C010020012130B55D
:105AC000084683B000F0B8F901210F48FFF7F0FD58
:105AD0000121082000F0B0F901A8FFF7D9FD082541
:105AE00003231022094C01A920468DF807208DF8C8
:105AF0000630ADF80450FFF715FC29462046012278
:105B0000FFF7D0FD03B030BD00023000000C0140B3
:105B10002DE9F0474FF4407000F01EFBFDF796FFB3
:105B2000FFF7CCFFFFF7B4F9FEF740FC00F0DCF81C
:105B3000FEF7AEFE00F04CF800231B4A1946106831
:105B40000222806803F04CFB184FDFF87880184D74
:105B5000DFF87490174EDFF874A03B88164C0133C1
:105B60003B8000F0A1F8388800F056F8B8F8000043
:105B700000F052F834F8020B00F04EF8AC42F9D1C4
:105B8000B9F80A0000F048F80C4C54F8040B00F087
:105B900069F8B442F9D10A4C34F8020F00F03CF82D
:105BA0005445DAD0F8E700BFA8010020300C0020EF
:105BB000220C0020DC0B0020180C0020CC0B002055
:105BC000F20B00205C0B00200C0C0020000C0020CD
:105BD00008B5FFF7D5F9FFF7E7F9FFF703FABDE8D6
:105BE0000840FFF74FBF00BF10B5094C094A2378A2
:105BF0000A2803F10101C9B2D054217001D03E2915
:105C000004D90448FFF782FA0023237010BD00BFB7
:105C1000320C0020280D0020034610B50F4882B03A
:105C2000D9B2ADF8063000F001FA40210B4800F07F
:105C300005FA0028F9D09DF80710084800F0F6F999
:105C4000064C4021204600F0F9F90028F9D0BDF8B3
:105C50000610034803F08AF802B010BD0038014076
:105C6000F0DE000830B583B002AD0D4C45F8040DF0
:105C700015F8011B204600F0D9F94021204600F01C
:105C8000DDF90028F9D002AB9D42F1D1019801F075
:105C90009FF802460B46034803F068F803B030BD96
:105CA00000380140F8DE000810B57F210C4800F0F4
:105CB000BDF940210A4800F0C1F90028F9D07F2140
:105CC000074800F0B3F9064C4021204600F0B6F931
:105CD0000028F9D00348BDE8104003F0A9B800BF80
:105CE0000038014000DF000870B5012186B044F2A1
:105CF0000C0000F0A1F803254FF400721823234E86
:105D00000424304601A9ADF804208DF807308DF841
:105D10000650FFF707FB4FF480630DEB040130469C
:105D20008DF80650ADF804308DF80740FFF7FAFA09
:105D3000102306F580660DEB040130468DF8073020
:105D4000ADF804408DF80650FFF7ECFA21463046D6
:105D50000022FFF7A7FC4FF4E13500230C220C4C86
:105D600002A92046ADF80C30ADF80E30ADF8103079
:105D7000ADF81430ADF81220029500F0CFF82046AF
:105D8000012100F029F906B070BD00BF00080140F4
:105D900000380140014B1860704700BFD8004242F4
:105DA000214A10B4536803F00C03042B06D0082BCF
:105DB00025D01BB11D4A1346026001E01B4B036056
:105DC00019491B4A4C68C4F30314145DE340436053
:105DD0004C68C4F30224145D23FA04F484604C6814
:105DE000C4F3C224145DE340C360496810BCC1F32E
:105DF00081310A44127CB3FBF2F3036170475368AC
:105E00005168C3F38343C90303F1020307D5526802
:105E1000920304D4054A02FB03F30360D0E7054A6A
:105E200002FB03F30360CBE70010024000127A008C
:105E30005C01002000093D00044A936919B923EA76
:105E40000000906170471843906170470010024055
:105E5000044AD36919B923EA0000D0617047184396
:105E6000D061704700100240837933B330B40468C6
:105E70001B4BE1431D6802790D401D605D6802F116
:105E800080422940596002F58232156841792C43DD
:105E9000146002689C68D04304409C60DC68102950
:105EA00000EA0400D86013D030BC01F1804303F550
:105EB000823319680A431A6070470379016803F155
:105EC000804303F582331A6822EA01021A607047A0
:105ED000996830BC11439960D9680A43DA60704709
:105EE0000004014000230C2203604271037183719E
:105EF000704700BF054B1A685B69034004D002423B
:105F000014BF01200020704718467047000401406C
:105F1000014B5861704700BF0004014070B50D4649
:105F20000446038ACA889BB223F4405313438989E9
:105F300003828289AE8822F4B05323F00C031B0441
:105F400028891B0C6A893343034313439BB2A38103
:105F5000A38A86B09BB223F440730B4301A8A382AB
:105F6000FFF71EFF04991A48039BA289844208BFC9
:105F70000B4612F4004F2A6803EB830314BF520050
:105F8000920003EB8303B3FBF2F36422114DA1896A
:105F9000A5FB0360400902FB10330A044FEA00101E
:105FA0000AD41B013233A5FB0323C3F3431303437A
:105FB0009BB2238106B070BDD9003231A5FB0131FF
:105FC000C1F3421242EA00039BB2238106B070BDC6
:105FD000003801401F85EB51838929B923F4005310
:105FE0001B041B0C838170479BB243F400538381D5
:105FF000704700BF012310B401F01F04C1F3421128
:10600000012903FA04F30FD002290CBF1030143019
:106010002AB9026810BC22EA0303036070470268D1
:1060200010BC1343036070470C30F1E7C1F3080163
:10603000818070478088C0F3080070470388194248
:1060400014BF0120002070470123C1F3421210B495
:10605000012A01F01F0403FA04F315D0022A0CBF31
:10606000028A828A92B21340028892B24BB1012313
:10607000090A03FA01F10A4214BF1846002010BCB5
:106080007047184610BC7047828992B21340EBE704
:1060900000204FF4274310B40349044C044A206005
:1060A0000B8010BC13607047240D0020445C00403E
:1060B000405C0040044A05491368002B08BF0B46AA
:1060C0001844106018467047340C0020980D0020CA
:1060D0004FF0FF30704700BF4FF4005300204B607B
:1060E000704700BF0120704700207047104670477E
:1060F00070B5161E07DD0C468D1914F8010BFFF75D
:1061000073FDAC42F9D1304670BD00BFFEE700BF61
:1061100000F04ABC4FF48020FFF7FABE0122014B89
:106120001A607047580100200122084B10B5032067
:106130001A60FEF795FD0346054C024623604FF4B6
:106140008871BDE81040034800F01EBC54010020D7
:10615000680D0020840C002040F0BF60024B40F42A
:106160000030D860704700BF00ED00E0C3785BB935
:106170000121037814485A0903F01F03203201FA61
:1061800003F340F822307047104B0F21DA6870B4E7
:10619000D243012485784378C2F30222C2F1040677
:1061A00021FA02F22A40B34001781343064A1B0148
:1061B00001F01F055018DBB2AC4080F800334909EC
:1061C00042F8214070BC704700E100E000ED00E0C3
:1061D0004A880B8830B48C881343CA8823430C89BF
:1061E00013434A898D8923431343CC8902882B4367
:1061F000234302F4415213439BB20380838B0A8AE8
:1062000023F400631B041B0C838330BC02827047A1
:10621000002307220380028243808380C38003819E
:1062200043818381C3817047038829B923F04003E8
:106230001B041B0C038070479BB243F04003038098
:10624000704700BF81817047808980B2704700BF6E
:106250000389194214BF0120002070472DE9F04F37
:10626000804685B003F01F0B9DF838500291174609
:106270006D215A4600780393FFF718F82A466E21DD
:1062800098F80000FFF712F8102002F00BFA002631
:106290008246BE4250DA06F11003BB4253DDBC1BFE
:1062A000E4B22346C5F580729A42029BBCBF6C42A1
:1062B000E4B203EB06094B4622466F2198F8000032
:1062C000FFF718F8BAF1000F1BD05A466D2198F865
:1062D0000000FEF7EBFF2A466E2198F80000FEF75B
:1062E000E5FF1E4B98F800001B88224600936F21A3
:1062F0005346FEF769FF22465146484602F084FCA9
:1063000020BB2644B6B22C44B742E5B2C1DD2DB95C
:10631000039B0133DBB2039303F01F0B5A466D213D
:1063200098F80000FEF7C2FF2A466E2198F8000098
:10633000FEF7BCFFBE42AEDB504602F0BBF90120C7
:1063400005B0BDE8F08F10231C46ABE7504602F0C5
:10635000B1F9002005B0BDE8F08F00BFC0000020FB
:1063600068230370704700BF0246062310B5044639
:10637000094912F8010B098882B0009201911A466E
:106380007521FEF7F1FE6078A0F13400B0FA80F0DC
:10639000400902B010BD00BFC00000200A460078CE
:1063A0001921FEF783BF00BF00B583B00078032337
:1063B000009105221A21FEF747FF03B05DF804FBA8
:1063C00000B583B000780323009102221A21FEF762
:1063D0003BFF03B05DF804FB00B583B000780223F7
:1063E000009104221B21FEF72FFF03B05DF804FB90
:1063F0000A4600781F21FEF759BF00BF0A46007801
:106400002021FEF753BF00BF0A4600782121FEF786
:106410004DBF00BF0A4600782221FEF747BF00BFEC
:106420000A4600783821FEF741BF00BF10B5044688
:10643000044B421C1B883A210078FEF7B3FE6078BB
:1064400010BD00BFC00000200B46007806226A2164
:10645000FEF7D2BE0078012302226A21FEF7CCBEED
:106460000078012307226B21FEF7C6BE0B46007899
:1064700006226B21FEF7C0BE00B583B0007803236F
:10648000009102226B21FEF7DFFE03B05DF804FBF2
:1064900010B50446074B82B01B8800780222009397
:1064A0007221631CFEF790FE6078A37843EA002017
:1064B00002B010BDC000002010B5054B82B01C8892
:1064C00000780B4600947421FEF77EFE02B010BDEA
:1064D000C000002010B500220446064B82B01B8885
:1064E000007811460093631CFEF728FE607802B026
:1064F00010BD00BFC000002000220B4600781146EE
:10650000FEF77ABE0246062310B5084904460988FC
:1065100012F8010B82B0009201911A460021FEF799
:1065200023FE94F9010002B010BD00BFC00000209E
:10653000062300B5C9B283B000781A460091002145
:10654000FEF782FE03B05DF804FB00BF024606239F
:1065500010B508490446098812F8010B82B0009270
:1065600001911A460121FEF7FFFD94F9010002B0E6
:1065700010BD00BFC0000020062300B5C9B283B023
:1065800000781A4600910121FEF75EFE03B05DF827
:1065900004FB00BF0246062310B5084904460988DB
:1065A00012F8010B82B0009201911A460221FEF707
:1065B000DBFD94F9010002B010BD00BFC000002057
:1065C000062300B5C9B283B000781A4600910221B3
:1065D000FEF73AFE03B05DF804FB00BF8AB2007814
:1065E0001321FEF773BE00BF8AB200781521FEF7B3
:1065F0006DBE00BF8AB200781721FEF767BE00BFEC
:106600000B46007807226A21FEF7F6BD00780123C9
:1066100003226A21FEF7F0BD01F01F010BB141F02A
:1066200020010AB141F040010A4600786D21FEF7D1
:106630003DBE00BF0A4600786E21FEF737BE00BFA0
:1066400010B50446044B421C1B886F210078FEF7EE
:10665000A9FD607810BD00BFC00000202DE9F04FFB
:10666000804685B003F01F0B9DF838508A461746C8
:106670006D215A4600780393FEF718FE2A4698F8D3
:1066800000006E21FEF712FE0026DFF88090BC1B92
:10669000BE4206F11003E4B235DABB42D6BF102287
:1066A00022461446C5F580709042BCBF6C42E4B2ED
:1066B000B9F800E00AEB0603264498F800002246E9
:1066C0006F21CDF800E0B6B2FEF77EFD2C44BE424D
:1066D000E5B2DCDA6D212DB9039B0133DBB2039304
:1066E00003F01F0B5A4698F80000FEF7DFFD2A461C
:1066F0006E2198F80000FEF7D9FDBC1BBE4206F1E2
:106700001003E4B2C9DB05B0BDE8F08FC000002083
:106710002DE9F04F87B0059303F01F0B9DF844302F
:1067200082461C469DF8405004939DF848308846A8
:1067300091466D215A4600780393FEF7B7FD2A462D
:106740009AF800006E21FEF7B1FD002C7DD1039B6D
:10675000002B75D10026B1455DDD06F1100399458A
:1067600064DAA9EB0604E4B22346C5F580729A42C6
:10677000039BBCBF6C42E4B2002B54D044B1002355
:1067800008EB0302915D5A1CF954D3B2A342F7DB24
:106790003B4622466F219AF80000FEF7ABFD049BB2
:1067A000F3B1029BE3B15A466D219AF80000FEF75F
:1067B0007DFD2A466E219AF80000FEF777FD2E4AED
:1067C0009AF8000013886F2100932246029BFEF77F
:1067D000FBFC22460299384602F016FA002839D10D
:1067E0002644B6B22544B145EDB2B4DD2DB9059BC2
:1067F0000133DBB2059303F01F0B5A466D219AF863
:106800000000FEF753FD2A466E219AF80000FEF7BD
:106810004DFDB145A1DC049B2BBB039B4BB9012073
:1068200007B0BDE8F08F08EB0607B1E710231C4660
:106830009BE7384601F03EFF039807B0BDE8F08FB4
:10684000102001F02FFF074684E7102001F02AFFF7
:1068500002907CE7029801F02DFF039B3BB918469C
:1068600007B0BDE8F08F029801F024FFD5E7384665
:1068700001F020FF0020D3E7C000002070B5012602
:1068800084B09DF820509DF8244002960095019414
:10689000FFF73EFF04B070BD2DE9F04F814683B095
:1068A00008200F46904601F0FDFE4FF0000A054615
:1068B000C2453CDA0AF102039BB2FC5C0AF1030612
:1068C000B6B22CB30AF101039BB2042C17F803B043
:1068D00017F80AA032D80021BA19535C481C6B542F
:1068E00081B28C42F9DCA4B253462246CDF800B006
:1068F00029464846FFF7B2FC34441FFA84FA0028C0
:10690000D6D1284601F0D6FE002003B0BDE8F08FB6
:10691000BB5D0AF1040A012B1FFA8AFAF1D1322277
:10692000382199F80000FEF7C1FCC245C2DB2846B9
:1069300001F0C0FE012003B0BDE8F08F28462146DB
:1069400002F07EFA0546C6E70A4600787021FEF797
:10695000ADBC00BF0A4600787121FEF7A7BC00BF9E
:10696000013252100ED0002310B401F1005101F594
:106970004051490030F8024B21F8234001339A423C
:10698000F8D110BC704700BF01F10051013201F590
:10699000405152104FEA410105D051F8043B013AF1
:1069A00020F8023BF9D170474F4930B50B684F4C86
:1069B0009BB24F4D238022882B8889B01A409005C6
:1069C00007D54FF6FF524B480A6002780132D2B227
:1069D000027022881A4012042BD4228802F48062AA
:1069E00013421DD1228802F40052134203D04DF607
:1069F000FF713D4A1160228802F4807213420DD06B
:106A00004FF6FF61384B3C4A19601268140414D4E5
:106A10000022384B5A600720FEF7CAFF09B030BD8C
:106A20004FF6FF31304A354B11605B6898472B8831
:106A3000D8E7FDF7EBFD2B88CFE72E4A51680131EF
:106A4000516051680329E6D92D4908680007E2D44E
:106A500008682C4C80B29060206880B2009060681A
:106A600080B20190A06880B20290E06880B203908A
:106A7000206980B20490606980B20590A06980B2FC
:106A80000690E06980B20790906840F00100906045
:106A9000906880B20860906820F001009060906873
:106AA00080B2086019684905FCD54FF6FF30002117
:106AB0001860009B13489BB20360019B9BB243602C
:106AC000029B9BB28360039B9BB2C360049B9BB2FF
:106AD0000361059B9BB24361069B9BB28361079B4D
:106AE0009BB2C361516096E7445C00406C0D00208E
:106AF000240D0020380C0020485C0040CC00002011
:106B0000405C0040005C004081F0004102E000BFBA
:106B100083F0004330B54FEA41044FEA430594EA5D
:106B2000050F08BF90EA020F1FBF54EA000C55EA98
:106B3000020C7FEA645C7FEA655C00F0E2804FEA69
:106B40005454D4EB5555B8BF6D420CDD2C4480EA4B
:106B5000020281EA030382EA000083EA010180EA7B
:106B6000020281EA0303362D88BF30BD11F0004FC9
:106B70004FEA01314FF4801C4CEA113102D04042FF
:106B800061EB410113F0004F4FEA03334CEA13333A
:106B900002D0524263EB430394EA050F00F0A78052
:106BA000A4F10104D5F1200E0DDB02FA0EFC22FA4D
:106BB00005F2801841F1000103FA0EF2801843FA41
:106BC00005F359410EE0A5F120050EF1200E012A32
:106BD00003FA0EFC28BF4CF0020C43FA05F3C01870
:106BE00051EBE37101F0004507D54FF0000EDCF1E9
:106BF000000C7EEB00006EEB0101B1F5801F1BD392
:106C0000B1F5001F0CD349085FEA30004FEA3C0C95
:106C100004F101044FEA445212F5800F80F09A808B
:106C2000BCF1004F08BF5FEA500C50F1000041EB8F
:106C3000045141EA050130BD5FEA4C0C404141EB93
:106C4000010111F4801FA4F10104E9D191F0000FBA
:106C500004BF01460020B1FA81F308BF2033A3F13D
:106C60000B03B3F120020CDA0C3208DD02F1140C34
:106C7000C2F10C0201FA0CF021FA02F10CE002F16F
:106C80001402D8BFC2F1200C01FA02F120FA0CFC68
:106C9000DCBF41EA0C019040E41AA2BF01EB0451B1
:106CA000294330BD6FEA04041F3C1CDA0C340EDCAF
:106CB00004F11404C4F1200220FA04F001FA02F3F2
:106CC00040EA030021FA04F345EA030130BDC4F1B0
:106CD0000C04C4F1200220FA02F001FA04F340EAA5
:106CE0000300294630BD21FA04F0294630BD94F056
:106CF000000F83F4801306BF81F480110134013D3D
:106D00004EE77FEA645C18BF7FEA655C29D094EAAD
:106D1000050F08BF90EA020F05D054EA000C04BF2B
:106D20001946104630BD91EA030F1EBF0021002016
:106D300030BD5FEA545C05D14000494128BF41F0B5
:106D4000004130BD14F580043CBF01F5801130BD19
:106D500001F0004545F0FE4141F470014FF00000A4
:106D600030BD7FEA645C1ABF194610467FEA655C55
:106D70001CBF0B46024650EA013406BF52EA0335F7
:106D800091EA030F41F4002130BD00BF90F0000FE5
:106D900004BF0021704730B54FF4806404F1320421
:106DA0004FF000054FF0000150E700BF90F0000FDA
:106DB00004BF0021704730B54FF4806404F1320401
:106DC00010F0004548BF40424FF000013EE700BFD1
:106DD00042004FEAE2014FEA31014FEA02701FBF61
:106DE00012F07F4393F07F4F81F06051704792F033
:106DF000000F14BF93F07F4F704730B54FF46074AD
:106E000001F0004521F0004120E700BF50EA0102F7
:106E100008BF704730B54FF000050AE050EA0102A4
:106E200008BF704730B511F0004502D5404261EB14
:106E300041014FF4806404F132045FEA915C3FF455
:106E4000DCAE4FF003025FEADC0C18BF03325FEAEE
:106E5000DC0C18BF033202EBDC02C2F1200300FAA3
:106E600003FC20FA02F001FA03FE40EA0E0021FAC8
:106E700002F11444C1E600BF70B54FF0FF0C4CF4B2
:106E8000E06C1CEA11541DBF1CEA135594EA0C0F68
:106E900095EA0C0F00F0DEF82C4481EA030621EAA3
:106EA0004C5123EA4C5350EA013518BF52EA0335DE
:106EB00041F4801143F4801338D0A0FB02CE4FF090
:106EC0000005E1FB02E506F00042E0FB03E54FF0C0
:106ED0000006E1FB03569CF0000F18BF4EF0010EB8
:106EE000A4F1FF04B6F5007F64F5407404D25FEAB4
:106EF0004E0E6D4146EB060642EAC62141EA555167
:106F00004FEAC52040EA5E504FEACE2EB4F1FD0CA8
:106F100088BFBCF5E06F1ED8BEF1004F08BF5FEA26
:106F2000500E50F1000041EB045170BD06F00046D8
:106F300046EA010140EA020081EA0301B4EB5C0485
:106F4000C2BFD4EB0C0541EA045170BD41F480117D
:106F50004FF0000E013C00F3AB8014F1360FDEBFA2
:106F6000002001F0004170BDC4F10004203C35DA7E
:106F70000C341BDC04F11404C4F1200500FA05F301
:106F800020FA04F001FA05F240EA020001F00042A2
:106F900021F0004110EBD37021FA04F642EB060118
:106FA0005EEA430E08BF20EAD37070BDC4F10C0442
:106FB000C4F1200500FA04F320FA05F001FA04F206
:106FC00040EA020001F0004110EBD37041F10001F2
:106FD0005EEA430E08BF20EAD37070BDC4F12005FD
:106FE00000FA05F24EEA020E20FA04F301FA05F265
:106FF00043EA020321FA04F001F0004121FA04F20D
:1070000020EA020000EBD3705EEA430E08BF20EADC
:10701000D37070BD94F0000F0FD101F00046400016
:1070200041EB010111F4801F08BF013CF7D041EA98
:10703000060195F0000F18BF704703F0004652009C
:1070400043EB030313F4801F08BF013DF7D043EA6D
:107050000603704794EA0C0F0CEA135518BF95EA23
:107060000C0F0CD050EA410618BF52EA4306D1D1AA
:1070700081EA030101F000414FF0000070BD50EAC9
:10708000410606BF1046194652EA430619D094EA53
:107090000C0F02D150EA013613D195EA0C0F05D13D
:1070A00052EA03361CBF104619460AD181EA030191
:1070B00001F0004141F0FE4141F470014FF0000049
:1070C00070BD41F0FE4141F4780170BD70B54FF0E4
:1070D000FF0C4CF4E06C1CEA11541DBF1CEA135564
:1070E00094EA0C0F95EA0C0F00F0A7F8A4EB050446
:1070F00081EA030E52EA03354FEA013100F088803D
:107100004FEA03334FF0805545EA131343EA126305
:107110004FEA022245EA111545EA10654FEA0026BA
:107120000EF000419D4208BF964244F1FD0404F573
:10713000407402D25B084FEA3202B61A65EB0305CF
:107140005B084FEA32024FF480104FF4002CB6EB8C
:10715000020E75EB030E22BFB61A754640EA0C000C
:107160005B084FEA3202B6EB020E75EB030E22BF4C
:10717000B61A754640EA5C005B084FEA3202B6EB8D
:10718000020E75EB030E22BFB61A754640EA9C004C
:107190005B084FEA3202B6EB020E75EB030E22BF1C
:1071A000B61A754640EADC0055EA060E18D04FEADA
:1071B000051545EA16754FEA06164FEAC30343EA7A
:1071C00052734FEAC2025FEA1C1CC0D111F4801F47
:1071D0000BD141EA00014FF000004FF0004CB6E740
:1071E00011F4801F04BF01430020B4F1FD0C88BFDF
:1071F000BCF5E06F3FF6AFAEB5EB030C04BFB6EBEA
:10720000020C5FEA500C50F1000041EB045170BDDC
:107210000EF0004E4EEA113114EB5C04C2BFD4EB09
:107220000C0541EA045170BD41F480114FF0000E8D
:10723000013C90E645EA060E8DE60CEA135594EA09
:107240000C0F08BF95EA0C0F3FF43BAF94EA0C0F0C
:107250000AD150EA01347FF434AF95EA0C0F7FF481
:1072600025AF104619462CE795EA0C0F06D152EAD5
:1072700003353FF4FDAE1046194622E750EA4106B9
:1072800018BF52EA43067FF4C5AE50EA41047FF4CA
:107290000DAF52EA43057FF4EBAE12E780F00040F9
:1072A00002E000BF81F0004142001FBF5FEA4103DE
:1072B00092EA030F7FEA226C7FEA236C6AD04FEADE
:1072C0001262D2EB1363C1BFD21841404840414023
:1072D000B8BF5B42192B88BF704710F0004F40F4D5
:1072E000000020F07F4018BF404211F0004F41F4F1
:1072F000000121F07F4118BF494292EA030F3FD0BD
:10730000A2F1010241FA03FC10EB0C00C3F12003CF
:1073100001FA03F100F0004302D5494260EB40005E
:10732000B0F5000F13D3B0F1807F06D340084FEAC9
:10733000310102F10102FE2A51D2B1F1004F40EBBE
:10734000C25008BF20F0010040EA03007047490026
:1073500040EB000010F4000FA2F10102EDD1B0FAF1
:1073600080FCACF1080CB2EB0C0200FA0CF0AABFE6
:1073700000EBC25052421843BCBFD0401843704784
:1073800092F0000F81F4000106BF80F4000001328A
:10739000013BB5E74FEA41037FEA226C18BF7FEA61
:1073A000236C21D092EA030F04D092F0000F08BFA3
:1073B0000846704790EA010F1CBF0020704712F08A
:1073C0007F4F04D1400028BF40F00040704712F1C9
:1073D00000723CBF00F50000704700F0004343F02E
:1073E000FE4040F4000070477FEA226216BF084664
:1073F0007FEA23630146420206BF5FEA412390EA27
:10740000010F40F4800070474FF0000304E000BF1C
:1074100010F0004348BF40425FEA000C08BF7047CD
:1074200043F0964301464FF000001CE050EA010291
:1074300008BF70474FF000030AE000BF50EA0102A6
:1074400008BF704711F0004302D5404261EB410193
:107450005FEA010C02BF84460146002043F0B643B8
:1074600008BFA3F18053A3F50003BCFA8CF2083ADD
:10747000A3EBC25310DB01FA02FC634400FA02FCE6
:10748000C2F12002BCF1004F20FA02F243EB0200ED
:1074900008BF20F00100704702F1200201FA02FC4F
:1074A000C2F1200250EA4C0021FA02F243EB020042
:1074B00008BF20EADC7070474FF0FF0C1CEAD05286
:1074C0001EBF1CEAD15392EA0C0F93EA0C0F6FD047
:1074D0001A4480EA010C400218BF5FEA41211ED025
:1074E0004FF0006343EA501043EA5111A0FB013111
:1074F0000CF00040B1F5000F3EBF490041EAD371E6
:107500005B0040EA010062F17F02FD2A1DD8B3F161
:10751000004F40EBC25008BF20F00100704790F0D0
:10752000000F0CF0004C08BF49024CEA502040EA22
:1075300051207F3AC2BFD2F1FF0340EAC2507047E8
:1075400040F400004FF00003013A5DDC12F1190F26
:10755000DCBF00F000407047C2F10002410021FA98
:1075600002F1C2F1200200FA02FC5FEA310040F1B0
:10757000000053EA4C0308BF20EADC70704792F029
:10758000000F00F0004C02BF400010F4000F013A61
:10759000F9D040EA0C0093F0000F01F0004C02BF5C
:1075A000490011F4000F013BF9D041EA0C018FE7CB
:1075B0000CEAD15392EA0C0F18BF93EA0C0F0AD0D1
:1075C00030F0004C18BF31F0004CD8D180EA0100F7
:1075D00000F00040704790F0000F17BF90F0004F90
:1075E000084691F0000F91F0004F14D092EA0C0F72
:1075F00001D142020FD193EA0C0F03D14B0218BF05
:10760000084608D180EA010000F0004040F0FE404A
:1076100040F40000704740F0FE4040F440007047E6
:107620004FF0FF0C1CEAD0521EBF1CEAD15392EA65
:107630000C0F93EA0C0F69D0A2EB030280EA010C55
:1076400049024FEA402037D04FF0805343EA1111EE
:1076500043EA10130CF000408B4238BF5B0042F14C
:107660007D024FF4000C8B4224BF5B1A40EA0C00F1
:10767000B3EB510F24BFA3EB510340EA5C00B3EB23
:10768000910F24BFA3EB910340EA9C00B3EBD10F11
:1076900024BFA3EBD10340EADC001B0118BF5FEA63
:1076A0001C1CE0D1FD2A3FF650AF8B4240EBC2508C
:1076B00008BF20F0010070470CF0004C4CEA50204D
:1076C0007F32C2BFD2F1FF0340EAC250704740F49C
:1076D00000004FF00003013A37E792F0000F00F08E
:1076E000004C02BF400010F4000F013AF9D040EA0C
:1076F0000C0093F0000F01F0004C02BF490011F4A0
:10770000000F013BF9D041EA0C0195E70CEAD15397
:1077100092EA0C0F08D142027FF47DAF93EA0C0F7E
:107720007FF470AF084676E793EA0C0F04D14B0262
:107730003FF44CAF08466EE730F0004C18BF31F014
:10774000004CCAD130F000427FF45CAF31F000430E
:107750007FF43CAF5FE700BF42000ED2B2F1FE4FB4
:107760000BD34FF09E03B3EB126209D44FEA002310
:1077700043F0004323FA02F070474FF000007047D7
:1077800012F1610F01D1420202D14FF0FF30704778
:107790004FF00000704700BF03685A004CBF43F031
:1077A000004323F000431844704700BF61B32DE944
:1077B000F84F01F1FF3A90460646D146002707EB05
:1077C000090404EBD4746410E50071190846FFF74E
:1077D000E3FFA245834605F10800304409D0FFF7D6
:1077E000DBFFC34500F1FF3005D8404509D2671CD7
:1077F000E5E7C34505D9A74202D004F1FF39DEE72A
:1078000000210846BDE8F88F08467047012807D0D8
:10781000022807D0044B00280CBF184600207047F0
:1078200002487047024870471D7F0008217F00080A
:10783000257F000830B5254B83B004468D1E73B3F9
:1078400001A92846AFF3008018B301992A46FFF733
:10785000ADFF0146E8B1FFF79FFF4B68A064012B25
:1078600011D0002B22DB081DFFF796FF0023E064F8
:1078700023650368002B1EDBFFF78EFF00232061CA
:10788000184603B030BD052300221846226103B01C
:1078900030BD092300221846226103B030BD0C4BD5
:1078A0000C491846C91AC9100191CFE70123081DD8
:1078B000E0642365DDE7C3F30360FFF7A7FF00285B
:1078C000206114BF00230923DAE700BF0000000095
:1078D000B4E100083CE40008036810B5DA07044688
:1078E00006D49B0700F1480009D500F057FC236837
:1078F000590709D51A070ED5DB0613D510BD00F0C0
:1079000045FC23685907F5D404F1D00000F04EFC83
:1079100023681A07F0D404F5A87000F04FFC236820
:10792000DB06EBD404F5E870BDE8104000F08ABC3B
:10793000036803B103441846704700BF092070472D
:10794000704700BF70B504460D4608E02A6C2369F5
:10795000626121462A4601209847082808D1296CEF
:107960002046FFF767FF06460028EFD0FEF7CEFB64
:107970000728FBD13046296CFFF7E2FF281D00F0F5
:10798000F9FB00BF2DE9F04705460027ADF5727DF4
:1079900003AC0E1D92460FCE0FC40FCE0FC40FCEF8
:1079A0000FC496E80F00D5F80C80D5F8189084E83D
:1079B0000F0002AC2846216C2760FFF73BFFBAF1AD
:1079C000000F074614BF0A2609267FB1A36B46F0B5
:1079D00010018DE810022A46636401202B46C0473F
:1079E00078BB38460DF5727DBDE8F087236C4FF407
:1079F000F0726B6121467AA801F036F92B697AAAF8
:107A0000294630469847889B82468DE810023146C9
:107A100063642A462B460120C04790B94FF4F072A8
:107A20007AA9204601F020F9BAF1080F06D1216C9D
:107A30002846FFF7FFFE09260746C6E7BAF1070FFB
:107A400005D0092738460DF5727DBDE8F087384628
:107A5000216CFFF775FF03A800F08CFB406C7047AA
:107A6000F0B54FF0FF3ECB6BF9B00B640E1D01ADCE
:107A70000F4604460FCE0FC50FCE0FC50FCE0FC554
:107A800096E80F0085E80F00CDF800E006E02369D6
:107A90006A46214698470828054608D1109920468D
:107AA000FFF7C8FE0028F2D0092079B0F0BD684683
:107AB000FFF712FF062DF7D139462046FFF742FFA8
:107AC00030B4DD6BC160826119461D64002230BC98
:107AD00058E700BF70B54369C6680B6426B1012240
:107AE000FFF750FFFEF712FB03690A4604460D46F6
:107AF000014602209847072807D0082803D12946C5
:107B00002046FFF71FFFFEF701FB3046296CFFF709
:107B100017FF281D00F02EFBC2682AB110B4CC6BF1
:107B200000220C6410BC2DE79AE700BF704700BF2D
:107B3000836813B1014601201847704700B5042936
:107B400007D8DFE801F00309060909000BB90F2A7D
:107B500005D902205DF804FB01205DF804FB00EB71
:107B6000820252681846019B1A605DF804FB00BF50
:107B7000002310B584B003AC0A4600941946FFF701
:107B8000DDFF039804B010BD00B5042907D8DFE875
:107B900001F00309060909000BB90F2A05D90220D3
:107BA0005DF804FB01205DF804FB019900EB820203
:107BB0000968184651605DF804FB00BF002310B54A
:107BC00084B004AC44F8042D00940A461946FFF72B
:107BD000DBFF04B010BD00BFF0B54FF0FF3ED36B2C
:107BE000ADF50F7D1364151D17AC07460E460FCD7E
:107BF0000FC40FCD0FC40FCD0FC495E80F0084E85C
:107C00000F00CDF858E012E00C2116A86A46FFF7E5
:107C1000D5FF314616A8B84778B9049B16AA69461D
:107C2000082098470528044608D0092805D0269939
:107C30006846FFF7FFFD0028E6D0092416A8FFF7E5
:107C40004BFE20460DF50F7DF0BD00BF2DE9F04F36
:107C5000CC6C914622688BB004340D460792089490
:107C600000F0030B1E46002B60D103231202079283
:107C70008DF825608DF824302B6DBBF1020F08BF05
:107C8000AC6B13F0010340D1019300F008030393A0
:107C9000D4F80080B8F1000F39D0022E43D0B4F8E8
:107CA000008067880434AB6C27F0010A0F21484636
:107CB0009A44FFF75DFF824533D828F001039A44C8
:107CC00050452CBF002001207F0007F0020708F07C
:107CD000010847EA0807012F3ED035D3022F1CD1F7
:107CE000236823F000420292BBF1000F76D128B145
:107CF000039900297ED0002A00F0A680002B77DBB4
:107D0000029B013304EB8304C2E700230193022E9C
:107D10003EDDFFF713FE002840D009200BB0BDE880
:107D2000F08F0020D0E767680834BCE7022BA3DCA3
:107D30000221130C8DF825301204DBB204EB83040E
:107D400007928DF8241097E7BBF1000F02D00028AE
:107D500040F0BD8004349BE7BBF1000F25D1A8B1F2
:107D600094E80C00991C4FEAD272D6D005F1580164
:107D70000133069100F0A380201DFFF7D9FD06AB6B
:107D800001462846AFF30080002877D108347FE70A
:107D900007A9484600F0F0FA0028BED1019B002B4D
:107DA0005CD108200BB0BDE8F08F0D2148462F6A4A
:107DB000FFF7DEFE8742E9D1AB6A9C42E6D120465E
:107DC000FFF7EAFC0F2102464846FFF7F7FE484658
:107DD0002A460021FFF7F2FE07209FE70D214846C3
:107DE0002F6AFFF7C5FE874258D02368002B87DA39
:107DF000043485E7029B3BB305F15803271DCDF8FA
:107E000010B0DDF80C80A346DDF808A01C460596EE
:107E100002E0B245B04616D038460694FFF788FD1A
:107E200006AB014600222846AFF3008008F10106A8
:107E300004370028EDD0029B5C464345DDF810B0C6
:107E4000059ED2D100E05C4648460D21FFF790FE2A
:107E5000069B2862AC626B6206205FE70F214846F2
:107E6000FFF786FE0E2102464846FFF7A7FE48466A
:107E7000294A0F21FFF7A2FE07204FE707460D21F1
:107E80004846FFF775FE022F28621DD12B46069A41
:107E900043F82C2F6B62AC6206203FE7AB6A9C4232
:107EA000A3D1042200270299A318A962EF622A63D2
:107EB0006B632368BB421DDB0123019320E7484627
:107EC0000D21FFF755FE2862069B6B62E3E7204613
:107ED000FFF762FC04340646AC632846AFF300802B
:107EE00000283FF41AAF484632460F21FFF766FEDE
:107EF000072013E70846013004EB8000FFF74CFC35
:107F00000F2102464846FFF759FE48462A463946A1
:107F1000FFF754FE072001E700000000002395E66C
:107F2000012393E6022391E6F0B50446C5B0042987
:107F30000DD8DFE801F055030C310F00012B4FEA9B
:107F4000124695B264D17219102A40F29D80022027
:107F500045B0F0BD002BFAD1102AF8D82368D80616
:107F600000F1C88022AE30460192012500F074F97C
:107F70000023A06B019A05FA03F1114203D00168B6
:107F8000043046F823100133042BF4D1A0633046AB
:107F900000F058F90020DBE7032BD8D1150C97B27D
:107FA000EB19102BD3D823681E0700F1B78022AE3F
:107FB000304600F025F9ED00A06B5FB1043D0346AB
:107FC000711900EBC70053F8042B834241F8042FCA
:107FD000F9D11846A063304600F0F0F80020B7E76A
:107FE000002BB4D10127A56B96B2201D07FA03F12F
:107FF000314203F1010302D0296804350160102BDE
:1080000000F10400F2D112F400503BD1A5639FE7C8
:10801000052B9CD17719202F99D80F2E66D92F4682
:10802000002D3AD12A460027002AA06B72DD00EB12
:10803000C202014644A800EBC6008C3851F8045B2C
:10804000914240F8045FF9D1084697B1102E3246AC
:1080500038BF102244A901EBC202A2F5C472790014
:10806000043A00EB810150F8045B884242F8045F57
:10807000F9D1012B48D00F2EA16333D917B102A833
:1080800000F094F8002063E70F2E3FF660AF002762
:108090002268D10717D4002F60D02268510745D439
:1080A000012B4DD00F2E06D822A8019300F07AF8AC
:1080B000019B002FB6D002A8019300F07BF8019B32
:1080C000C6F11002B0E722F00101052B21600193F7
:1080D00020463BD022F0030240F8482B00F05AF82B
:1080E000019BD8E722A800F059F8C7E7102FCED996
:1080F000103FCDE723F01003236004F5E8700192F0
:1081000000F0AAF8019A2DE70431A16322A800F03B
:108110003DF8B7E7002F99D10146AAE723F00803FD
:10812000236004F5A87000F06BF840E7204622F0C9
:10813000040240F8D02B019300F03CF8019BAFE71C
:1081400022A8019300F026F8019BB9E741F0020153
:1081500040F8481B00F026F8019B9CE7012B03D058
:108160000F2E3FF65FAF9FE722A8019300F012F8B1
:10817000019B57E700F1340191E838009C46A64680
:108180004CF8045D90E8FF0FE54600BD90EC210B34
:10819000704700BF80EC210B704700BF90EC200BB4
:1081A000704700BF80EC200B704700BFD0EC200B65
:1081B000704700BFC0EC200B704700BFF0EC02011D
:1081C000F0EC0211F0EC0221F0EC0231F0EC024193
:1081D000F0EC0251F0EC0261F0EC0271F0EC028183
:1081E000F0EC0291F0EC02A1F0EC02B1F0EC02C173
:1081F000F0EC02D1F0EC02E1F0EC02F1704700BFCC
:10820000E0EC0201E0EC0211E0EC0221E0EC0231D2
:10821000E0EC0241E0EC0251E0EC0261E0EC0271C2
:10822000E0EC0281E0EC0291E0EC02A1E0EC02B1B2
:10823000E0EC02C1E0EC02D1E0EC02E1E0EC02F1A2
:10824000704700BFB0FC0181B0FC0191B0FC01A1FE
:10825000B0FC01B1704700BFA0FC0181A0FC0191FE
:10826000A0FC01A1A0FC01B1704700BFEC4600B525
:108270002DE900502DE9FF1F4FF000032DE90C0000
:1082800001A9FFF7EDFBDDF840E012B0704700BF39
:10829000EC4600B52DE900502DE9FF1F4FF000031B
:1082A0002DE90C0001A9FFF715FCDDF840E012B044
:1082B000704700BFEC4600B52DE900502DE9FF1FC7
:1082C0004FF000032DE90C0001A9FFF725FCDDF8B4
:1082D00040E012B0704700BFEC4600B52DE90050F9
:1082E0002DE9FF1F4FF000032DE90C0001ABFFF754
:1082F000E7FBDDF840E012B0704700BFEC4600B588
:108300002DE900502DE9FF1F4FF000032DE90C006F
:1083100001AAFFF761FCDDF840E012B0704700BF32
:10832000027A1AB9437A43B9B02070470368013A18
:1083300002721A020260180E704703214268013B64
:1083400010B443721368141D01721A024460026073
:1083500010BC180E704700BF002300B585B003AAFB
:10836000009219460C22FFF7E9FB039805B05DF86F
:1083700004FB00BFF0E700BF2DE9F04306460F46BF
:108380004FF0000885B03846FFF7CAFFB028044612
:1083900023D0050627D400230DF10C0919468500CA
:1083A0000D22CDF800903046FFF7C8FBEDB2039BDD
:1083B000600605F104054CBF5D1BED1800230D227E
:1083C0001946CDF8009030460395FFF7DDFB38469F
:1083D000FFF7A6FFB0280446DBD1B8F1000F00F08C
:1083E000948000201CE000F0F003802B5CD0902BE8
:1083F00019D0A02B2CD0B02B3ED0C02B6BD000F0CE
:10840000F803D02B0BD100F00702013242F4002216
:10841000052301213046FFF787FD0028B3D009204E
:1084200005B0BDE8F08300F00D030D2BF7D000235D
:1084300003AD00F00F02194600953046FFF77EFBB2
:108440000023009519460D223046FFF79DFB9AE761
:10845000C3434FF47F6203F007031A41002301076F
:1084600002F47F6248BF42F4804219463046FFF76B
:108470005BFD0028D3D186E7B12857D0B22868D059
:10848000B32800F0958000F0FC03B42BC7D0012383
:1084900000F007021A4442F4002219463046FFF762
:1084A00043FD0028BBD16EE73846FFF739FF2402B1
:1084B0000443B4F5004FB2D000232401A2B2194600
:1084C0003046FFF731FD0028A9D114F4004F18BF42
:1084D0004FF0010857E7C6287DD0C72800F08680F6
:1084E00000F0F803C02B00F09480C82800F09F80B3
:1084F000C92894D13846FFF713FF020300F00F009C
:1085000002F470220130024382E703AC43460E229C
:10851000414600943046FFF711FB00943046434635
:108520000F224146FFF730FB404679E73846FFF718
:10853000F7FE00283FF473AF10F0F0037FF46FAF45
:10854000024619463046FFF7EFFC00287FF467AF7C
:1085500019E700230DF10C090D221946CDF8009002
:108560003046FFF7EBFA3846FFF7DAFE02064FF027
:1085700002040CD5039B00F07F00A0400344384662
:108580000393FFF7CDFE030604F10704F2D40023A2
:10859000039900F07F02A24001F501718C18CDF81B
:1085A000009019460D2230460394FFF7EDFAEAE6F3
:1085B0003846FFF7B5FE0123010300F00F0001F478
:1085C0007021C2180A4330461946FFF7ADFC002857
:1085D0007FF425AFD7E63846FFF7A2FE010300F08F
:1085E0000F00032301F47021421CEBE73846FFF72C
:1085F00097FE00283FF413AF10F0F0037FF40FAFA5
:10860000024604213046FFF78FFC00287FF407AFB5
:10861000B9E6032300F00F02013242F4202219468A
:108620003046FFF781FC00287FF4F9AEABE6384610
:10863000FFF776FE00F0F00200F00F031032013376
:1086400043EA0232E4E600BF30B503240D46C36CB2
:1086500085B05A688DF80C40DC791202083301A904
:10866000284601928DF80D400293FFF785FE05B074
:1086700030BD00BF08B5FFF77DFE806C08BD00BFB0
:1086800008B5FFF777FEC06CC37900EB83000830B4
:1086900008BD00BF08B5FDF739FD00BF08B5FFF7FD
:1086A000F9FF00BF024B0146186800F00BB800BF8D
:1086B000A8010020024B0146186803F057BB00BF19
:1086C000A80100202DE9F04F01F10B06162E83B012
:1086D000054640F29E8036F0070600F1BD80B142AB
:1086E00000F2BA8000F036FBB6F5FC7FC0F0858260
:1086F000730A00F0B880042B00F26C81B30903F117
:10870000390003F1380EC100B84F39444C680839BC
:10871000A14206D10CE0002A80F2AB80E468A142BD
:1087200006D0636823F003039A1B0F2AF3DD70461B
:108730003C69DFF8CCE2744500F09E81636823F069
:1087400003039A1B0F2A00F38381002AC7F814E061
:10875000C7F810E080F29180B3F5007F80F054817B
:108760000122DB0879684FEAA30C134457F83380E1
:1087700002FA0CF207EBC30C0A43ACF10801E1600A
:10878000C4F808807A6047F83340C8F80C400124E8
:1087900083109C4094427DD8144206D120F00300FF
:1087A0006400144200F10400FAD007EBC009CC4683
:1087B0008046DCF80C309C4507D15FE1002A80F24E
:1087C0006D81DB689C4500F05981596821F00301F7
:1087D0008A1B0F2AF2DDDC68D3F808C046F00108D6
:1087E00028461E4442F00105C3F80480CCF80C4032
:1087F000C4F808C07E613E61C6F80CE0C6F808E027
:1088000075605A50009300F0ABFA009B03F1080426
:108810001EE0102920D800F09DFA1026182302200F
:10882000724F3B445C68A3F10802944200F02F8130
:108830006368E16823F0030323445A68A66842F0A2
:108840000102F16028468E605A6000F089FA08340F
:10885000204603B0BDE8F08F00240C2320462B6097
:1088600003B0BDE8F08F40204FF400714FF03F0E91
:108870004AE723445A68E168E0E723445A682846F7
:1088800042F001025A60083400F06AFA204603B050
:10889000BDE8F08FBC68636823F00308B04504D3DB
:1088A000A8EB06030F2B00F38580DFF85891504B9F
:1088B000D9F800201B680132334404EB080A00F0A9
:1088C000548103F580530F3323F47F6B2BF00F0B90
:1088D0005946284600F072FC411C024600F0FB801D
:1088E000824500F2F680434B19685944196000F044
:1088F0004C81D9F8000001301BBFA2EB0A0A514499
:10890000C9F80020196012F0070100F01481C1F1CC
:108910000800C1F580510244083102EB0B09C9F38C
:108920000B09A1EB0909494628460193009200F082
:1089300045FC431C9DE80C0000F04281801A48442D
:1089400040F001001968BC424944BA6019605060A7
:1089500017D0B8F10F0F40F2FA804FF0050C6268A3
:10896000A8F10C0020F0070002F0010204EB000E59
:1089700002430F286260CEF804C0CEF808C000F2AF
:1089800016811D4BBC681A68914288BF19601B4B49
:108990001A689142626888BF196022F00302964209
:1089A000A2EB060301D80F2B04DC284600F0D8F90F
:1089B00000244DE746F0010243F0010326446260C3
:1089C0002846BE600834736000F0CAF9204603B040
:1089D000BDE8F08F142B70D9542B00F2A280330B1A
:1089E00003F16F0003F16E0EC1008DE6D805002083
:1089F000740C0020440C00206C0C0020700C002033
:108A0000E0050020E00900205A0A042A5BD9142A54
:108A100000F2AE8002F15C01C9005B3207EB010C91
:108A20007958ACF1080C8C4500F088804A6822F037
:108A30000302934273D289688C45F7D1DCF80C307D
:108A40007A68E360C4F808C09C60CCF80C409EE6ED
:108A500046F0010C42F001012644C4F804C0284647
:108A60007E613E61C6F80CE0C6F808E07160E25035
:108A700000F076F90834EBE67A6888E608F1010838
:108A800018F0030F0CF1080C7FF493AE2DE0DC68B6
:108A9000A34208BF02303FF44BAEC9E61C4619445E
:108AA0004A68DB6854F8086F42F001024A602846C1
:108AB000F3609E6000F054F9CAE603F15C0003F134
:108AC0005B0EC10020E69A0902F13901C900383273
:108AD000A4E7BC4254D0BC68626822F003025EE79F
